:1000000001F501120AFF000001F5011501F70116C3
:1000100001F7011401F9011701F6011701F70114A5
:1000200001F5011101F8011301F6011301F90110A5
:1000300001F4011401F8011301F3011B01F9011688
:1000400001F7011201F7011501F5011A01F9011774
:1000500001F7011101F9011401F4011501F701146F
:1000600001F5011401F9011101F7011601FB01135A
:1000700001F5011601F7011701F7011A01F9011441
:1000800001F5011301F7011501F5011501F901123F
:1000900001F7011501F9011601F5011701F7011327
:1000A00001F3011501F9011501F7011701F701131A
:1000B00001F5011401F9011501F7011201F901100F
:1000C00001F5011501F7011801F5011801F90118F1
:1000D00001F7011501FB011601F5011901F70114E2
:1000E00001F7011401F9011501F5011301F70111DF
:1000F00001F5011601F9011701F6011701F90116C1
:1001000001F5011501F7011301F2011601F90115BD
:1001100001F7011301F7011401F5011101F90111B2
:1001200001F7011501F9011501F5011501F7011597
:1001300001F5011801F9011701F6011501FB011480
:1001400001F5011201F8011601F7011301F901147B
:1001500001F6011401F8011801F5011501FA011663
:1001600001F6011601F9011501F5011401F701115C
:1001700001F3011101F9011401F7011201F7011353
:1001800001F6011601F9011601F7011501F9011631
:1001900001F5011401F7011601F5011401F901132C
:1001A00001F7011401FB011201F5011201F701141D
:1001B00001F7011601F9011401F5011701F7011901
:1001C00001F5011801F8011601F7011101F90111FA
:1001D00001F5011401F7011401F3011001F90113F4
:1001E00001F7011401F7011601F6011501F80117D5
:1001F00001F7011801F9011601F5011401F70115C4
:1002000001F5011501FA011201F7010F01FB0116B9
:1002100001F5011701F7011701F7011801F901189C
:1002200001F6011901F7011301F5011401F901119A
:1002300001F7011201F9011301F5011401F7011190
:1002400001F3011301F8011401F7011A01F7011874
:1002500001F5011A01F9011301F6010F01F901126B
:1002600001F5011401F7011001F5011201F9011561
:1002700001F7011601FB011501F5011401F7011742
:1002800001F6011501F9011201F5011501F701143B
:1002900001F5011401F9011401F7011301F9011429
:1002A00001F5011701F7011601F3011901F9011810
:1002B00001F7011701F7011401F5011301F9011507
:1002C00001F7011401F9011301F5011401F80115F9
:1002D00001F5011901F8011501F7011501FA0117DE
:1002E00001F5011601F7011101F6011001F90113E1
:1002F00001F5011101F8011201F5011301F90115D0
:1003000001F7011601F9011501F4011501F70118B2
:1003100001F3011401F8011401F6011201F70115AE
:1003200001F5010F01F9011401F7011601F9011797
:1003300001F5011601F7011801F6011401F9011682
:1003400001F7011301FB011401F5011201F801127B
:1003500001F7011401F9011401F5011601F7011467
:1003600001F5011601F9011801F6011701F901184B
:1003700001F5011201F7011501F3011201F8011352
:1003800001F6011301F7011601F5011701F9011733
:1003900001F7011601F9011501F5011601F7011523
:1003A00001F5011101F9011501F7011401FB01111A
:1003B00001F5011301F7011601F7011701F9011702
:1003C00001F5011601F7011701F5011701F90116F1
:1003D00001F7011201F9011201F5011401F70112EF
:1003E00001F3011201F9011301F6011701F80114DB
:1003F00001F5011301F9011501F7011701F90114C4
:00000001FF
